{
  "contractName": "SimpleStorage",
  "abi": [
    {
      "anonymous": false,
      "inputs": [
        {
          "indexed": false,
          "internalType": "string",
          "name": "_text",
          "type": "string"
        }
      ],
      "name": "textChange",
      "type": "event"
    },
    {
      "anonymous": false,
      "inputs": [
        {
          "indexed": false,
          "internalType": "uint256",
          "name": "_val",
          "type": "uint256"
        }
      ],
      "name": "valueChange",
      "type": "event"
    },
    {
      "inputs": [],
      "name": "read",
      "outputs": [
        {
          "internalType": "uint256",
          "name": "",
          "type": "uint256"
        }
      ],
      "stateMutability": "view",
      "type": "function",
      "constant": true
    },
    {
      "inputs": [
        {
          "internalType": "uint256",
          "name": "newValue",
          "type": "uint256"
        }
      ],
      "name": "write",
      "outputs": [],
      "stateMutability": "nonpayable",
      "type": "function"
    },
    {
      "inputs": [],
      "name": "greet",
      "outputs": [
        {
          "internalType": "string",
          "name": "",
          "type": "string"
        }
      ],
      "stateMutability": "view",
      "type": "function",
      "constant": true
    },
    {
      "inputs": [
        {
          "internalType": "string",
          "name": "newText",
          "type": "string"
        }
      ],
      "name": "setGreet",
      "outputs": [],
      "stateMutability": "nonpayable",
      "type": "function"
    }
  ],
  "bytecode": "0x608060405234801561001057600080fd5b506107ba806100206000396000f3fe608060405234801561001057600080fd5b5060043610610069576000357c0100000000000000000000000000000000000000000000000000000000900480632f048afa1461006e57806357de26a41461008a5780639698086b146100a8578063cfae3217146100c4575b600080fd5b6100886004803603810190610083919061024d565b6100e2565b005b610092610123565b60405161009f9190610289565b60405180910390f35b6100c260048036038101906100bd9190610309565b61012c565b005b6100cc61017b565b6040516100d991906103e6565b60405180910390f35b806000819055507f2d0599878921e2d8617d5ea681445dc026673e046fa320d0d5d0140d73881e87816040516101189190610289565b60405180910390a150565b60008054905090565b81816001918261013d929190610654565b507f29b217f8ba72d33cb0f351808aa44593304f0d506279a3290374fca6031234c6828260405161016f929190610760565b60405180910390a15050565b60606001805461018a90610471565b80601f01602080910402602001604051908101604052809291908181526020018280546101b690610471565b80156102035780601f106101d857610100808354040283529160200191610203565b820191906000526020600020905b8154815290600101906020018083116101e657829003601f168201915b5050505050905090565b600080fd5b600080fd5b6000819050919050565b61022a81610217565b811461023557600080fd5b50565b60008135905061024781610221565b92915050565b6000602082840312156102635761026261020d565b5b600061027184828501610238565b91505092915050565b61028381610217565b82525050565b600060208201905061029e600083018461027a565b92915050565b600080fd5b600080fd5b600080fd5b60008083601f8401126102c9576102c86102a4565b5b8235905067ffffffffffffffff8111156102e6576102e56102a9565b5b602083019150836001820283011115610302576103016102ae565b5b9250929050565b600080602083850312156103205761031f61020d565b5b600083013567ffffffffffffffff81111561033e5761033d610212565b5b61034a858286016102b3565b92509250509250929050565b600081519050919050565b600082825260208201905092915050565b60005b83811015610390578082015181840152602081019050610375565b60008484015250505050565b6000601f19601f8301169050919050565b60006103b882610356565b6103c28185610361565b93506103d2818560208601610372565b6103db8161039c565b840191505092915050565b6000602082019050818103600083015261040081846103ad565b905092915050565b600082905092915050565b7f4e487b7100000000000000000000000000000000000000000000000000000000600052604160045260246000fd5b7f4e487b7100000000000000000000000000000000000000000000000000000000600052602260045260246000fd5b6000600282049050600182168061048957607f821691505b60208210810361049c5761049b610442565b5b50919050565b60008190508160005260206000209050919050565b60006020601f8301049050919050565b60008160020a8302905092915050565b6000600883026105077fffffffffffffffffffffffffffffffffffffffffffffffffffffffffffffffff826104c7565b61051186836104c7565b95508019841693508086168417925050509392505050565b6000819050919050565b600061054e61054961054484610217565b610529565b610217565b9050919050565b6000819050919050565b61056883610533565b61057c61057482610555565b8484546104d7565b825550505050565b600090565b610591610584565b61059c81848461055f565b505050565b5b818110156105c0576105b5600082610589565b6001810190506105a2565b5050565b601f821115610605576105d6816104a2565b6105df846104b7565b810160208510156105ee578190505b6106026105fa856104b7565b8301826105a1565b50505b505050565b60008160020a8304905092915050565b600061062b6000198460080261060a565b1980831691505092915050565b6000610644838361061a565b9150826002028217905092915050565b61065e8383610408565b67ffffffffffffffff81111561067757610676610413565b5b6106818254610471565b61068c8282856105c4565b6000601f8311600181146106bb57600084156106a9578287013590505b6106b38582610638565b86555061071b565b601f1984166106c9866104a2565b60005b828110156106f1578489013582556001820191506020850194506020810190506106cc565b8683101561070e578489013561070a601f89168261061a565b8355505b6001600288020188555050505b50505050505050565b82818337600083830152505050565b600061073f8385610361565b935061074c838584610724565b6107558361039c565b840190509392505050565b6000602082019050818103600083015261077b818486610733565b9050939250505056fea264697066735822122080590d58ce36428308fe73a552903129b5e63444e2e5ebaf74f6c942cfe330a264736f6c63430008140033",
  "immutableReferences": {},
  "source": "// SPDX-License-Identifier: MIT\npragma solidity >=0.4.22 <0.9.0;\n\ncontract SimpleStorage {\n  uint256 value;\n  string greeter;\n\n  event valueChange(uint _val);\n  event textChange(string _text);\n\n  function read() public view returns (uint256) {\n    return value;\n  }\n\n  function write(uint256 newValue) public {\n    value = newValue;\n    emit valueChange(newValue);\n  }\n\n  function greet() public view returns (string memory) {\n    return greeter;\n  }\n\n  function setGreet(string calldata newText) public {\n    greeter = newText;\n    emit textChange(newText);\n  }\n}\n",
  "sourcePath": "/Users/nicolasfoti/Desktop/Alyra/DAPP/ex2Events/truffle/contracts/SimpleStorage.sol",
  "compiler": {
    "name": "solc",
    "version": "0.8.20+commit.a1b79de6.Emscripten.clang"
  },
  "schemaVersion": "3.4.14",
  "updatedAt": "2023-06-26T12:07:03.893Z",
  "networkType": "ethereum",
  "devdoc": {
    "kind": "dev",
    "methods": {},
    "version": 1
  },
  "userdoc": {
    "kind": "user",
    "methods": {},
    "version": 1
  }
}